:020000040800F2
:1000000000500020750E0008C1090008C909000849
:10001000D1090008D9090008E10900080000000022
:10002000000000000000000000000000E9090008D6
:10003000F509000800000000010A00080D0A000888
:10004000BD0E0008BD0E0008BD0E0008BD0E000864
:10005000BD0E0008BD0E0008BD0E0008BD0E000854
:10006000BD0E0008BD0E0008BD0E0008BD0E000844
:10007000BD0E0008190A0008BD0E0008BD0E0008DC
:10008000BD0E0008BD0E0008BD0E0008BD0E000824
:10009000BD0E0008BD0E0008BD0E0008BD0E000814
:1000A000BD0E0008BD0E0008BD0E0008BD0E000804
:1000B0002D0A0008BD0E0008BD0E0008BD0E000888
:1000C000BD0E0008BD0E0008BD0E0008410A000864
:1000D000550A0008690A0008BD0E0008BD0E000898
:1000E000BD0E0008BD0E0008BD0E00080000000097
:1000F0000000000000000000000000000000000000
:0C01000000000000000000005FF808F1A3
:10010C0010B5054C237833B9044B13B10448AFF345
:10011C0000800123237010BD0C00002000000000A3
:10012C007043000808B5034B1BB103490348AFF3F8
:10013C00008008BD00000000100000207043000883
:10014C0080B582B000AF0C4B5B690B4A43F00103E6
:10015C005361094B5B6903F001037B607B680022F0
:10016C0000210D2000F0DFFF0D2000F0F8FF00BF94
:10017C000837BD4680BD00BF0010024080B588B076
:10018C0000AF07F1100300221A605A609A60DA601F
:10019C00284B9B69274A43F010039361254B9B69BD
:1001AC0003F01003FB60FB68224B9B69214A43F070
:1001BC00040393611F4B9B6903F00403BB60BB6892
:1001CC001C4B9B691B4A43F008039361194B9B69B9
:1001DC0003F008037B607B6800224FF40051164843
:1001EC0001F070FB01224FF48051144801F06AFBBE
:1001FC004FF400533B6101237B610023BB6102235D
:10020C00FB6107F1100319460B4801F0D7F94FF4C5
:10021C0080533B6101237B610023BB610223FB61A3
:10022C0007F110031946054801F0C8F900BF203743
:10023C00BD4680BD0010024000100140000C014082
:10024C0080B582B000AF03463960FB712D4AFB7953
:10025C0013702C4B002283F810222A4B002283F8B7
:10026C001222284B002283F81122FB79022B38D062
:10027C00022B41DC002B02D0012B1BD03CE03B6855
:10028C00032B11D03B68032B12DC3B68012B03D0F2
:10029C003B68022B04D00BE01A4B1B4A5A6008E057
:1002AC00184B1A4A5A6004E0164B194A5A6000E07F
:1002BC0000BF22E03B68002B03D03B68012B0BD026
:1002CC000EE0104B134A9A600E4B98680423124AA6
:1002DC00124902F091FA03E00A4B114A9A6000BFEE
:1002EC000BE03B68012B02D03B68022B03E0054B73
:1002FC000C4ADA6000BF00E000BF00BF0837BD4603
:10030C0080BD00BF280000201C04002064040020D5
:10031C00AC0400209002002038000020380100209E
:10032C00E80200203C02002080B588B002AF786063
:10033C0039603C4B9B683C4A93423AD17B68002B1A
:10034C0001D1012369E000F00DFEF86009E000F036
:10035C0009FE0246FB68D31A3A689A4201D8032375
:10036C005BE0304B93F81232002BF0D02D4B002277
:10037C0083F812222B4BDB7C0433DAB2294B83F843
:10038C00102200237B610BE07B697A6813442549BA
:10039C007A690A44103212781A707B6901337B61D6
:1003AC00204B93F810321A467B699342ECDB002306
:1003BC0033E000224FF480511C4801F083FA194BB2
:1003CC0098684FF47A7300930423194A194902F080
:1003DC0069F80346FB74FB7C002B11D13B680422AB
:1003EC001349154803F078F90E4B98684FF47A735B
:1003FC00009304230E4A0F4902F054F80346FB7491
:10040C003B6804220A490C4803F066F901224FF4B8
:10041C008051064801F056FAFB7C18461837BD4649
:10042C0080BD00BF2800002090020020000C01407D
:10043C0038000020380100201C04002080B582B058
:10044C0000AF7860144B93F81132002B02D0012BC3
:10045C000DD01CE0104B5B680F4AD27C0F4918463C
:10046C0003F0C5F90C4B012283F811220FE00A4B63
:10047C00012283F81222084B5B68042207491846B4
:10048C0003F0B5F9044B002283F8112200BF00BF22
:10049C000837BD4680BD00BF280000203800002072
:1004AC0080B582B000AF7860144B93F81132002BFA
:1004BC0002D0012B0DD01CE0104B98681049114A4A
:1004CC000E4BDB7C02F098F90C4B012283F81122C5
:1004DC000FE00A4B012283F81222084B9868042380
:1004EC00094A0A4902F088F9044B002283F81122C8
:1004FC0000BF00BF0837BD4680BD00BF28000020EC
:10050C003C0100203C000020380000203801002075
:10051C0080B500AF124B134A1A60114B124A5A6045
:10052C000F4B00229A600E4B0022DA600C4B4FF4FA
:10053C0080421A610A4B00225A61094B00229A61CF
:10054C00074B0022DA61064B00221A62044801F0C4
:10055C00D1F90346002B01D000F0CBF800BF80BDD1
:10056C003C02002000540040A086010080B588B0F9
:10057C0000AF786007F1100300221A605A609A608D
:10058C00DA607B681B68154A934223D1144B9B6934
:10059C00134A43F008039361114B9B6903F0080362
:1005AC00FB60FB68C0233B6112237B610323FB616F
:1005BC0007F1100319460B4801F000F8084BDB69F2
:1005CC00074A43F40013D361054BDB6903F40013B2
:1005DC00BB60BB6800BF2037BD4680BD00540040E7
:1005EC0000100240000C014080B584B000AF00F058
:1005FC0061FC00F03DF8FFF7C1FDFFF7A1FD00F035
:10060C007FF800F0EBFA00F0ADF800F037FAFFF7E6
:10061C007FFF00F00DFB00F035FB01210120FFF7FF
:10062C000FFE3B1D42F210711846FFF77DFE03468C
:10063C00FB73FB7B032B07D14FF47A73052209491B
:10064C00094803F049F80AE0FB7B012B07D14FF472
:10065C007A7305220549044803F03EF800BF00BF39
:10066C00FDE700BF884300081C04002090430008ED
:10067C0080B590B000AF07F118032822002118466E
:10068C0003F044FE3B1D00221A605A609A60DA6047
:10069C001A610223BB610123BB621023FB6202239C
:1006AC007B630023BB634FF46013FB6307F11803F8
:1006BC00184601F063FA0346002B01D000F019F83C
:1006CC000F237B600223BB600023FB604FF480632D
:1006DC003B6100237B613B1D0221184601F0D0FCDD
:1006EC000346002B01D000F004F800BF4037BD4694
:1006FC0080BD80B400AF72B600BF00BFFDE7000044
:10070C0080B500AF154B164A1A60144B00225A6084
:10071C00124B00229A60114B0022DA600F4B002220
:10072C001A610E4B00225A610C4B00229A610B4B42
:10073C0000221A62094B00225A62084B00229A626C
:10074C00064B0A22DA62054801F028FE0346002B0C
:10075C0001D0FFF7CEFF00BF80BD00BF900200208C
:10076C000030014080B500AF174B184A1A60164B89
:10077C004FF482725A60144B00229A60124B002282
:10078C00DA60114B00221A610F4B00225A610E4B9A
:10079C004FF400729A610C4B1822DA610A4B00225A
:1007AC001A62094B00225A62074B00229A62064BCE
:1007BC000A22DA62044801F0F1FD0346002B01D055
:1007CC00FFF797FF00BF80BDE80200200038004013
:1007DC0080B58AB000AF786007F1180300221A6068
:1007EC005A609A60DA607B681B68524A93425ED109
:1007FC00514B9B69504A43F4805393614E4B9B6918
:10080C0003F480537B617B694B4B9B694A4A43F0F1
:10081C0004039361484B9B6903F004033B613B6900
:10082C00B023BB610023FB6100233B6207F118037B
:10083C001946424800F0C2FE4023BB610223FB6113
:10084C0003237B6207F1180319463C4800F0B6FEFF
:10085C003B4B3C4A1A603A4B10225A60384B0022F0
:10086C009A60374B8022DA60354B00221A61344B88
:10087C0000225A61324B00229A61314B0022DA611C
:10088C002F4800F087FC0346002B01D0FFF731FF07
:10089C007B682B4A9A642A4A7B68536200220021A7
:1008AC00232000F040FC232000F059FC3EE07B6844
:1008BC001B68254A934239D11F4BDB691E4A43F40E
:1008CC008043D3611C4BDB6903F48043FB60FB6802
:1008DC00194B9B69184A43F008039361164B9B69AB
:1008EC0003F00803BB60BB684FF42043BB610223D9
:1008FC00FB6103237B6207F118031946134800F0D0
:10090C005DFE4FF48043BB610023FB6100233B621F
:10091C0007F1180319460D4800F050FE0022002183
:10092C00242000F000FC242000F019FC00BF283724
:10093C00BD4680BD0030014000100240000801405F
:10094C00400300203000024000380040000C014001
:10095C0080B485B000AF154B9B69144A43F001037A
:10096C009361124B9B6903F00103BB60BB680F4B97
:10097C00DB690E4A43F08053D3610C4BDB6903F007
:10098C0080537B607B680A4B5B68FB60FB6823F0E1
:10099C00E063FB60FB6843F08063FB60044AFB6828
:1009AC00536000BF1437BD4680BC70470010024036
:1009BC000000014080B400AF00BFFDE780B400AF81
:1009CC0000BFFDE780B400AF00BFFDE780B400AF0F
:1009DC0000BFFDE780B400AF00BFFDE780B400AFFF
:1009EC0000BFBD4680BC704780B400AF00BFBD46A1
:1009FC0080BC704780B400AF00BFBD4680BC704760
:100A0C0080B500AF00F09CFA00BF80BD80B500AF90
:100A1C00024800F0CDFC00BF80BD00BF40030020A9
:100A2C0080B500AF024802F0B8FA00BF80BD00BF2D
:100A3C008403002080B500AF024801F06BFF00BFBB
:100A4C0080BD00BF9002002080B500AF024801F0CD
:100A5C0061FF00BF80BD00BFE802002080B500AF81
:100A6C00024802F0E9FE00BF80BD00BF1C0400205C
:100A7C0080B400AF00BFBD4680BC704780B586B067
:100A8C0000AF07F1080300221A605A609A60DA601E
:100A9C003B4600221A605A601D4B4FF080421A6090
:100AAC001B4B4FF6FF125A60194B00229A60184BE1
:100ABC000922DA60164B00221A61154B00229A614A
:100ACC00134802F01BFA0346002B01D0FFF711FE6E
:100ADC004FF48053BB6007F1080319460C4802F031
:100AEC004CFB0346002B01D0FFF703FE00233B60B9
:100AFC0000237B603B461946054802F02DFD03465A
:100B0C00002B01D0FFF7F5FD00BF1837BD4680BDA7
:100B1C008403002080B584B000AF78607B681B68CC
:100B2C00B3F1804F13D10C4BDB690B4A43F001033B
:100B3C00D361094BDB6903F00103FB60FB68002206
:100B4C0000211C2000F0EFFA1C2000F008FB00BF75
:100B5C001037BD4680BD00BF0010024080B483B08A
:100B6C0000AF00237B601DE0134A7B6852F83330E2
:100B7C00002B14DD104A7B6852F833305A1E0E4994
:100B8C007B6841F833200C4A7B6852F83330002BD9
:100B9C0005DC094A7B68DB00134401225A607B6840
:100BAC0001337B607B68092BDEDD00BF00BF0C3797
:100BBC00BD4680BC704700BFCC03002080B582B01E
:100BCC0000AF78607B681B68B3F1804F01D1FFF7F1
:100BDC00C5FF00BF0837BD4680BD000080B500AF23
:100BEC00114B124A1A60104B4FF4E1325A600E4B03
:100BFC0000229A600C4B0022DA600B4B00221A6127
:100C0C00094B0C225A61084B00229A61064B0022B8
:100C1C00DA61054802F010FD0346002B01D0FFF706
:100C2C0068FD00BF80BD00BF1C04002000380140DF
:100C3C0080B500AF114B124A1A60104B4FF4E132E1
:100C4C005A600E4B00229A600C4B0022DA600B4B60
:100C5C0000221A61094B0C225A61084B00229A613E
:100C6C00064B0022DA61054802F0E6FC0346002B35
:100C7C0001D0FFF73EFD00BF80BD00BF6404002023
:100C8C000044004080B500AF114B124A1A60104B63
:100C9C004FF4E1325A600E4B00229A600C4B00224A
:100CAC00DA600B4B00221A61094B0C225A61084B7B
:100CBC0000229A61064B0022DA61054802F0BCFC66
:100CCC000346002B01D0FFF714FD00BF80BD00BF11
:100CDC00AC0400200048004080B58CB000AF7860B8
:100CEC0007F1200300221A605A609A60DA607B6870
:100CFC001B68574A93423AD1564B9B69554A43F469
:100D0C0080439361534B9B6903F48043FB61FB6904
:100D1C00504B9B694F4A43F0040393614D4B9B69C5
:100D2C0003F00403BB61BB694FF400733B62022305
:100D3C007B620323FB6207F120031946464800F04F
:100D4C003DFC4FF480633B6200237B620023BB625B
:100D5C0007F120031946404800F030FC0022002126
:100D6C00252000F0E0F9252000F0F9F96CE07B6813
:100D7C001B683A4A934230D1364BDB69354A43F40F
:100D8C000033D361334BDB6903F400337B617B6944
:100D9C00304B9B692F4A43F0040393612D4B9B69A5
:100DAC0003F004033B613B6904233B6202237B6237
:100DBC000323FB6207F120031946274800F0FEFBD2
:100DCC0008233B6200237B620023BB6207F12003F4
:100DDC001946214800F0F2FB36E07B681B68204A7C
:100DEC00934231D11B4BDB691A4A43F48023D36104
:100DFC00184BDB6903F48023FB60FB68154B9B6984
:100E0C00144A43F008039361124B9B6903F00803E7
:100E1C00BB60BB684FF480633B6202237B6203239D
:100E2C00FB6207F1200319460E4800F0C7FB4FF494
:100E3C0000633B6200237B620023BB6207F120034B
:100E4C001946084800F0BAFB00BF3037BD4680BDDC
:100E5C0000380140001002400008014000440040EE
:100E6C0000480040000C0140FFF702FE0B480C4903
:100E7C000C4A002302E0D458C4500433C4188C42EA
:100E8C00F9D3094A094C002301E013600432A24251
:100E9C00FBD303F043FAFFF7A7FB704700000020D9
:100EAC000C000020CC4300080C000020F8040020AB
:100EBC00FEE7000080B500AF084B1B68074A43F003
:100ECC0010031360032000F023F90F2000F008F842
:100EDC00FFF73EFD0023184680BD00BF00200240F6
:100EEC0080B582B000AF7860124B1A68124B1B7839
:100EFC0019464FF47A73B3FBF1F3B2FBF3F31846D4
:100F0C0000F03BF90346002B01D001230EE07B6877
:100F1C000F2B0AD8002279684FF0FF3000F003F94C
:100F2C00064A7B681360002300E00123184608374B
:100F3C00BD4680BD000000200800002004000020F9
:100F4C0080B400AF054B1B781A46054B1B68134445
:100F5C00034A136000BFBD4680BC704708000020E8
:100F6C00F404002080B400AF024B1B681846BD4649
:100F7C0080BC7047F404002080B485B000AF78606A
:100F8C007B6803F00703FB600C4BDB68BB60BA6843
:100F9C004FF6FF031340BB60FB681A02BB68134398
:100FAC0043F0BF6343F40033BB60044ABB68D360B7
:100FBC0000BF1437BD4680BC704700BF00ED00E099
:100FCC0080B400AF044BDB681B0A03F00703184620
:100FDC00BD4680BC704700BF00ED00E080B483B01C
:100FEC0000AF0346FB7197F90730002B0BDBFB7945
:100FFC0003F01F02064997F907305B09012000FA3C
:10100C0002F241F8232000BF0C37BD4680BC70476C
:10101C0000E100E080B483B000AF03463960FB719F
:10102C0097F90730002B0ADB3B68DAB20C4997F9C9
:10103C0007301201D2B20B4483F800230AE03B685C
:10104C00DAB20849FB7903F00F03043B1201D2B268
:10105C000B441A7600BF0C37BD4680BC704700BFEE
:10106C0000E100E000ED00E080B489B000AFF86072
:10107C00B9607A60FB6803F00703FB61FB69C3F19D
:10108C000703042B28BF0423BB61FB690433062B25
:10109C0002D9FB69033B00E000237B614FF0FF3278
:1010AC00BB6902FA03F3DA43BB681A407B699A40C6
:1010BC004FF0FF317B6901FA03F3D9437B680B4096
:1010CC00134318462437BD4680BC704780B582B0A8
:1010DC0000AF78607B68013BB3F1807F01D30123C3
:1010EC000FE00A4A7B68013B53600F214FF0FF3041
:1010FC00FFF790FF054B00229A60044B07221A6001
:10110C00002318460837BD4680BD00BF10E000E044
:10111C0080B582B000AF78607868FFF72DFF00BF14
:10112C000837BD4680BD80B586B000AF0346B960B8
:10113C007A60FB7300237B61FFF742FF78617A686A
:10114C00B9687869FFF790FF024697F90F3011469E
:10115C001846FFF75FFF00BF1837BD4680BD80B54E
:10116C0082B000AF0346FB7197F907301846FFF7C2
:10117C0035FF00BF0837BD4680BD80B582B000AFDB
:10118C0078607868FFF7A2FF034618460837BD461B
:10119C0080BD000080B485B000AF78600023FB6098
:1011AC007B68002B01D1012343E07B681B681A4646
:1011BC00224B1344224AA2FB03231B099A007B688F
:1011CC001A647B681F4ADA637B68022283F8212049
:1011DC007B681B681B68FB60FB6823F47F5323F060
:1011EC003003FB607B685A687B689B681A437B689A
:1011FC00DB681A437B681B691A437B685B691A437B
:10120C007B689B691A437B68DB691343FA68134359
:10121C00FB607B681B68FA681A607B6800229A6323
:10122C007B68012283F821207B68002283F8202030
:10123C00002318461437BD4680BC7047F8FFFDBF2D
:10124C00CDCCCCCC0000024080B485B000AF78602F
:10125C000023FB737B6893F82130DBB2022B08D0A0
:10126C007B6804229A637B68002283F82020012388
:10127C0020E07B681B681A687B681B6822F00E02F2
:10128C001A607B681B681A687B681B6822F0010275
:10129C001A607B681A6C7B68DB6B012101FA02F225
:1012AC005A607B68012283F821207B68002283F836
:1012BC002020FB7B18461437BD4680BC70470000CD
:1012CC0080B584B000AF78600023FB737B6893F823
:1012DC002130DBB2022B05D07B6804229A630123F8
:1012EC00FB7351E07B681B681A687B681B6822F0F3
:1012FC000E021A607B681B681A687B681B6822F0F8
:10130C0001021A607B681B68224A934229D07B68D1
:10131C001B68214A934222D07B681B681F4A934268
:10132C001AD07B681B681E4A934212D07B681B68DC
:10133C001C4A93420AD07B681B681B4A934202D119
:10134C004FF480130EE04FF080730BE04FF48033BA
:10135C0008E04FF4805305E04FF4807302E0102353
:10136C0000E00123114A53607B68012283F821209D
:10137C007B68002283F820207B685B6B002B03D0FA
:10138C007B685B6B78689847FB7B18461037BD46CB
:10139C0080BD00BF080002401C000240300002402B
:1013AC0044000240580002406C0002400000024021
:1013BC0080B584B000AF78607B68DB6B1B68FB602A
:1013CC007B681B681B68BB607B681B6C04229A40A3
:1013DC00FB681340002B4FD0BB6803F00403002BB9
:1013EC004AD07B681B681B6803F02003002B07D1D5
:1013FC007B681B681A687B681B6822F004021A6001
:10140C007B681B68664A934229D07B681B68654AD7
:10141C00934222D07B681B68634A93421AD07B6844
:10142C001B68624A934212D07B681B68604A9342E5
:10143C000AD07B681B685F4A934202D14FF4800349
:10144C000EE04FF080630BE04FF4802308E04FF484
:10145C00804305E04FF4806302E0402300E0042366
:10146C00554A53607B68DB6A002B00F094807B68E4
:10147C00DB6A786898478EE07B681B6C02229A4086
:10148C00FB681340002B56D0BB6803F00203002B03
:10149C0051D07B681B681B6803F02003002B0BD119
:1014AC007B681B681A687B681B6822F00A021A604A
:1014BC007B68012283F821207B681B68384A9342A1
:1014CC0029D07B681B68374A934222D07B681B6803
:1014DC00354A93421AD07B681B68344A934212D027
:1014EC007B681B68324A93420AD07B681B68314A7E
:1014FC00934202D14FF400130EE04FF000730BE057
:10150C004FF4003308E04FF4005305E04FF4007340
:10151C0002E0202300E00223274A53607B6800226C
:10152C0083F820207B689B6A002B34D07B689B6AF5
:10153C00786898472FE07B681B6C08229A40FB6800
:10154C001340002B28D0BB6803F00803002B23D0DA
:10155C007B681B681A687B681B6822F00E021A6095
:10156C007B681A6C7B68DB6B012101FA02F25A6012
:10157C007B6801229A637B68012283F821207B68B7
:10158C00002283F820207B681B6B002B04D07B6827
:10159C001B6B7868984700BF00BF1037BD4680BDF5
:1015AC00080002401C00024030000240440002408F
:1015BC00580002406C0002400000024080B48BB026
:1015CC0000AF7860396000237B6200233B6269E1E5
:1015DC0001227B6A02FA03F3FB613B681B68FA6920
:1015EC001340BB61BA69FB699A4240F058813B6871
:1015FC005B689A4A93425ED0984A934275D8984A4F
:10160C00934258D0964A93426FD8964A934252D0FE
:10161C00944A934269D8944A93424CD0924A93424A
:10162C0063D8924A934246D0904A93425DD8122B8B
:10163C002AD8122B59D801A252F823F0C31600084D
:10164C009D160008AF160008F1160008F7160008E2
:10165C00F7160008F7160008F7160008F71600082A
:10166C00F7160008F7160008F7160008F71600081A
:10167C00F7160008F7160008F7160008F71600080A
:10168C00A5160008B9160008794A934213D02CE02D
:10169C003B68DB683B6229E03B68DB6804333B62F8
:1016AC0024E03B68DB6808333B621FE03B68DB6887
:1016BC000C333B621AE03B689B68002B02D104237D
:1016CC003B6213E03B689B68012B05D108233B620E
:1016DC007B68FA691A6109E008233B627B68FA6946
:1016EC005A6103E000233B6200E000BFBB69FF2BA3
:1016FC0001D87B6801E07B6804337B61BB69FF2BFD
:10170C0002D87B6A9B0002E07B6A083B9B003B6132
:10171C007B691A680F213B6901FA03F3DB431A401A
:10172C00396A3B6901FA03F31A437B691A603B6817
:10173C005B6803F08053002B00F0B1804D4B9B692C
:10174C004C4A43F0010393614A4B9B6903F001033C
:10175C00BB60BB68484A7B6A9B08023352F8233053
:10176C00FB607B6A03F003039B000F2202FA03F376
:10177C00DB43FA681340FB607B68404A934213D00A
:10178C007B683F4A93420DD07B683E4A934207D018
:10179C007B683D4A934201D1032306E0042304E015
:1017AC00022302E0012300E000237A6A02F0030224
:1017BC0092009340FA681343FB602F497B6A9B08A5
:1017CC000233FA6841F823203B685B6803F480130A
:1017DC00002B06D02D4B9A682C49BB6913438B60A8
:1017EC0006E02A4B9A68BB69DB43284913408B609F
:1017FC003B685B6803F40013002B06D0234BDA68BC
:10180C002249BB691343CB6006E0204BDA68BB6905
:10181C00DB431E491340CB603B685B6803F4003329
:10182C00002B06D0194B5A681849BB6913434B60FF
:10183C0006E0164B5A68BB69DB43144913404B60F6
:10184C003B685B6803F48033002B21D00F4B1A6884
:10185C000E49BB6913430B6021E000BF000032103E
:10186C0000003110000022100000211000001210A6
:10187C00000011100010024000000140000801405F
:10188C00000C014000100140001401400004014014
:10189C000B4B1A68BB69DB43094913400B607B6A2D
:1018AC0001337B623B681A687B6A22FA03F3002BD4
:1018BC007FF48EAE00BF00BF2C37BD4680BC704796
:1018CC000004014080B483B000AF78600B467B808D
:1018DC0013467B707B78002B03D07A887B681A6167
:1018EC0003E07B881A047B681A6100BF0C37BD4685
:1018FC0080BC704780B584B000AF78607B68002BEB
:10190C0001D101232BE17B6893F83D30DBB2002B36
:10191C0006D17B68002283F83C207868FEF726FE0F
:10192C007B68242283F83D207B681B681A687B68DF
:10193C001B6822F001021A607B681B681A687B68BE
:10194C001B6842F400421A607B681B681A687B684B
:10195C001B6822F400421A6000F0DAFCF8607B6825
:10196C005B68814A934207D8FB68804A934294BFD4
:10197C0001230023DBB206E0FB687D4A934294BF4F
:10198C0001230023DBB2002B01D00123E7E0FB682D
:10199C00784AA2FB03239B0CBB607B681B685B68CB
:1019AC0023F03F017B681B68BA680A435A607B6866
:1019BC001B681B6A23F03F017B685B686A4A934291
:1019CC0002D8BB68013309E0BB684FF4967202FB86
:1019DC0003F3694AA2FB03239B0901337A6812685B
:1019EC000B4313627B681B68DB6923F44F4222F0C4
:1019FC00FF027B685B685C498B4219D8FB68591EF7
:101A0C007B685B685B00B1FBF3F3591C40F6FC731D
:101A1C000B40002B0AD0FB68591E7B685B685B008F
:101A2C00B1FBF3F30133C3F30B0351E004234FE099
:101A3C007B689B68002B11D1FB68581E7B6859682A
:101A4C000B465B000B44B0FBF3F30133C3F30B0306
:101A5C00002B0CBF01230023DBB212E0FB68581EE5
:101A6C007B6859680B469B000B4499000B44B0FBF8
:101A7C00F3F30133C3F30B03002B0CBF012300233F
:101A8C00DBB2002B01D0012322E07B689B68002B8A
:101A9C000ED1FB68581E7B6859680B465B000B44E3
:101AAC00B0FBF3F30133C3F30B0343F400430FE038
:101ABC00FB68581E7B6859680B469B000B449900C9
:101ACC000B44B0FBF3F30133C3F30B0343F4404378
:101ADC00796809681343CB617B681B681B6823F02A
:101AEC00C0017B68DA697B681B6A1A437B681B68D8
:101AFC000A431A607B681B689B6823F4034323F03A
:101B0C00FF037A6811697A68D26811437A6812689F
:101B1C000B4393607B681B68DB6823F0FF017B68D9
:101B2C005A697B689B691A437B681B680A43DA60B5
:101B3C007B681B681A687B681B6842F001021A609C
:101B4C007B6800221A647B68202283F83D207B6826
:101B5C0000221A637B68002283F83E20002318467B
:101B6C001037BD4680BD00BFA08601007F841E00DB
:101B7C00FF083D0083DE1B43D34D621080B586B059
:101B8C0000AF78607B68002B01D1012372E27B6887
:101B9C001B6803F00103002B00F08780924B5B68FD
:101BAC0003F00C03042B0CD08F4B5B6803F00C037D
:101BBC00082B12D18C4B5B6803F48033B3F5803F58
:101BCC000BD1894B1B6803F40033002B6CD07B6862
:101BDC005B68002B68D101234CE27B685B68B3F532
:101BEC00803F06D1804B1B687F4A43F480331360DF
:101BFC002EE07B685B68002B0CD17B4B1B687A4A10
:101C0C0023F480331360784B1B68774A23F48023CA
:101C1C0013601DE07B685B68B3F5A02F0CD1724B91
:101C2C001B68714A43F4802313606F4B1B686E4A28
:101C3C0043F4803313600BE06B4B1B686A4A23F44C
:101C4C0080331360684B1B68674A23F4802313604E
:101C5C007B685B68002B13D0FFF784F9386108E0D0
:101C6C00FFF780F902463B69D31A642B01D9032391
:101C7C0000E25D4B1B6803F40033002BF0D014E042
:101C8C00FFF770F9386108E0FFF76CF902463B6921
:101C9C00D31A642B01D90323ECE1534B1B6803F4D7
:101CAC000033002BF0D100E000BF7B681B6803F011
:101CBC000203002B63D04C4B5B6803F00C03002B2E
:101CCC000BD0494B5B6803F00C03082B1CD1464B23
:101CDC005B6803F48033002B16D1434B1B6803F075
:101CEC000203002B05D07B681B69012B01D001235B
:101CFC00C0E13D4B1B6823F0F8027B685B69DB009D
:101D0C00394913430B603AE07B681B69002B20D0E8
:101D1C00364B01221A60FFF725F9386108E0FFF70E
:101D2C0021F902463B69D31A022B01D90323A1E105
:101D3C002D4B1B6803F00203002BF0D02A4B1B68C1
:101D4C0023F0F8027B685B69DB00274913430B60C7
:101D5C0015E0264B00221A60FFF704F9386108E001
:101D6C00FFF700F902463B69D31A022B01D9032372
:101D7C0080E11D4B1B6803F00203002BF0D17B6844
:101D8C001B6803F00803002B3AD07B689B69002B7F
:101D9C0019D0174B01221A60FFF7E4F8386108E0FC
:101DAC00FFF7E0F802463B69D31A022B01D9032353
:101DBC0060E10D4B5B6A03F00203002BF0D00120B5
:101DCC0000F0CEFA1CE00A4B00221A60FFF7CAF8AA
:101DDC0038610FE0FFF7C6F802463B69D31A022BB5
:101DEC0008D9032346E100BF001002400000424224
:101DFC0080044242924B5B6A03F00203002BE9D150
:101E0C007B681B6803F00403002B00F0A680002302
:101E1C00FB758B4BDB6903F08053002B0DD1884B8A
:101E2C00DB69874A43F08053D361854BDB6903F050
:101E3C008053BB60BB680123FB75824B1B6803F4AA
:101E4C008073002B18D17F4B1B687E4A43F4807340
:101E5C001360FFF787F8386108E0FFF783F8024654
:101E6C003B69D31A642B01D9032303E1754B1B681F
:101E7C0003F48073002BF0D07B68DB68012B06D158
:101E8C006F4B1B6A6E4A43F0010313622DE07B68B3
:101E9C00DB68002B0CD16A4B1B6A694A23F00103E7
:101EAC001362674B1B6A664A23F0040313621CE03F
:101EBC007B68DB68052B0CD1614B1B6A604A43F0D5
:101ECC00040313625E4B1B6A5D4A43F00103136209
:101EDC000BE05B4B1B6A5A4A23F001031362584B0D
:101EEC001B6A574A23F0040313627B68DB68002BE0
:101EFC0015D0FFF737F838610AE0FFF733F80246E0
:101F0C003B69D31A41F28832934201D90323B1E0E1
:101F1C004B4B1B6A03F00203002BEED014E0FFF7CF
:101F2C0021F838610AE0FFF71DF802463B69D31A25
:101F3C0041F28832934201D903239BE0404B1B6A48
:101F4C0003F00203002BEED1FB7D012B05D13C4BA2
:101F5C00DB693B4A23F08053D3617B68DB69002B40
:101F6C0000F08780364B5B6803F00C03082B61D0C4
:101F7C007B68DB69022B46D1334B00221A60FEF7DB
:101F8C00F1FF386108E0FEF7EDFF02463B69D31A1A
:101F9C00022B01D903236DE0294B1B6803F000735E
:101FAC00002BF0D17B681B6AB3F5803F08D1244B22
:101FBC005B6823F400327B689B68214913434B60B8
:101FCC001F4B5B6823F474127B68196A7B685B6A2D
:101FDC000B431B4913434B601B4B01221A60FEF74A
:101FEC00C1FF386108E0FEF7BDFF02463B69D31A1A
:101FFC00022B01D903233DE0114B1B6803F0007346
:10200C00002BF0D035E0104B00221A60FEF7AAFF2F
:10201C00386108E0FEF7A6FF02463B69D31A022B93
:10202C0001D9032326E0064B1B6803F00073002B39
:10203C00F0D11EE07B68DB69012B07D1012319E08D
:10204C000010024000700040600042420B4B5B6885
:10205C00FB60FB6803F480327B681B6A9A4206D1F2
:10206C00FB6803F470127B685B6A9A4201D001230F
:10207C0000E0002318461837BD4680BD0010024012
:10208C0080B584B000AF786039607B68002B01D1DB
:10209C000123D0E06A4B1B6803F007033A689A42AD
:1020AC0010D9674B1B6823F0070265493B68134343
:1020BC000B60634B1B6803F007033A689A4201D02C
:1020CC000123B8E07B681B6803F00203002B20D0CF
:1020DC007B681B6803F00403002B05D0594B5B682D
:1020EC00584A43F4E06353607B681B6803F00803B1
:1020FC00002B05D0534B5B68524A43F4605353603A
:10210C00504B5B6823F0F0027B689B684D4913438E
:10211C004B607B681B6803F00103002B40D07B688D
:10212C005B68012B07D1474B1B6803F40033002B72
:10213C0015D101237FE07B685B68022B07D1414BF3
:10214C001B6803F00073002B09D1012373E03D4B96
:10215C001B6803F00203002B01D101236BE0394B08
:10216C005B6823F003027B685B68364913434B6062
:10217C00FEF7F8FEF8600AE0FEF7F4FE0246FB6894
:10218C00D31A41F28832934201D9032353E02D4BE9
:10219C005B6803F00C027B685B689B009A42EBD196
:1021AC00274B1B6803F007033A689A4210D2244B62
:1021BC001B6823F0070222493B6813430B60204B3A
:1021CC001B6803F007033A689A4201D0012332E0FE
:1021DC007B681B6803F00403002B08D0194B5B6869
:1021EC0023F4E0627B68DB68164913434B607B6821
:1021FC001B6803F00803002B09D0124B5B6823F417
:10220C0060527B681B69DB000E4913434B6000F086
:10221C0021F802460B4B5B681B0903F00F030A49BC
:10222C00CB5C22FA03F3094A1360094B1B6818466E
:10223C00FEF756FE002318461037BD4680BD00BF82
:10224C0000200240001002409843000800000020CB
:10225C000400002080B487B000AF0023FB60002393
:10226C00BB6000237B6100237B6000233B611E4B22
:10227C005B68FB60FB6803F00C03042B02D0082B9B
:10228C0003D027E0194B3B6127E0FB689B0C03F064
:10229C000F03174AD35C7B60FB6803F48033002B7D
:1022AC0010D0114B5B685B0C03F00103114AD35C3B
:1022BC00BB607B680D4A03FB02F2BB68B2FBF3F315
:1022CC007B6104E07B680C4A02FB03F37B617B6956
:1022DC003B6102E0054B3B6100BF3B6918461C3774
:1022EC00BD4680BC704700BF0010024000127A004F
:1022FC00B0430008C043000800093D0080B400AFA3
:10230C00024B1B681846BD4680BC7047000000207D
:10231C0080B500AFFFF7F2FF0246054B5B681B0A66
:10232C0003F007030349CB5C22FA03F3184680BD84
:10233C0000100240A843000880B500AFFFF7DEFF95
:10234C000246054B5B68DB0A03F007030349CB5CD1
:10235C0022FA03F3184680BD00100240A84300087F
:10236C0080B485B000AF78600A4B1B680A4AA2FBA8
:10237C0003235B0A7A6802FB03F3FB6000BFFB6874
:10238C005A1EFA60002BF9D100BF00BF1437BD46AE
:10239C0080BC704700000020D34D621080B582B025
:1023AC0000AF78607B68002B01D1012376E07B685D
:1023BC005B6A002B08D17B685B68B3F5827F09D020
:1023CC007B680022DA6105E07B6800221A617B6879
:1023DC0000225A617B6800229A627B6893F8513024
:1023EC00DBB2002B06D17B68002283F85020786882
:1023FC00FEF7EEF97B68022283F851207B681B689C
:10240C001A687B681B6822F040021A607B685B6864
:10241C0003F482727B689B6803F404431A437B6861
:10242C00DB6803F400631A437B681B6903F0020347
:10243C001A437B685B6903F001031A437B689B6951
:10244C0003F400731A437B68DB6903F038031A4307
:10245C007B681B6A03F0800342EA03017B689B6A7A
:10246C0003F400527B681B680A431A607B689B6903
:10247C001A0C7B681B6802F004025A607B681B68AC
:10248C00DA697B681B6822F40062DA617B680022DF
:10249C005A657B68012283F85120002318460837BF
:1024AC00BD4680BD80B58AB000AFF860B9607A6077
:1024BC007B8001237B62FEF755FD3862FB6893F845
:1024CC005130FB77FB685B68BB617B88FB82FB7FD1
:1024DC00012B0CD0BB69B3F5827F06D1FB689B68DE
:1024EC00002B02D1FB7F042B01D002237FE1BB68C0
:1024FC00002B05D07B68002B02D07B88002B01D1F0
:10250C00012374E1FB6893F85030012B01D10223B5
:10251C006DE1FB68012283F85020FB6893F8513081
:10252C00DBB2042B03D0FB68052283F85120FB6837
:10253C0000225A65FB687A689A63FB687A88DA87A6
:10254C00FB687A889A87FB68BA681A63FB687A8892
:10255C00DA86FB687A889A86FB6800221A64FB6824
:10256C0000225A64FB681B681B6803F04003402B75
:10257C0007D0FB681B681A68FB681B6842F04002B6
:10258C001A60FB68DB68B3F5006F7ED1FB685B6893
:10259C00002B02D0FB8A012B6CD1FB681B6B1A88B9
:1025AC00FB681B68DA60FB681B6B9A1CFB681A6380
:1025BC00FB68DB8E9BB2013B9AB2FB68DA8659E072
:1025CC00FB681B689B6803F00203022B1BD1FB68A2
:1025DC00DB8E9BB2002B16D07B6A012B13D1FB68D0
:1025EC001B6B1A88FB681B68DA60FB681B6B9A1CF8
:1025FC00FB681A63FB68DB8E9BB2013B9AB2FB68EB
:10260C00DA8600237B62FB681B689B6803F001037E
:10261C00012B19D1FB68DB8F9BB2002B14D0FB680C
:10262C001B68DA68FB689B6B92B21A80FB689B6B29
:10263C009A1CFB689A63FB68DB8F9BB2013B9AB2D6
:10264C00FB68DA8701237B62FEF78CFC02463B6A4F
:10265C00D31A3A6B9A420DD83B6BB3F1FF3F09D0BA
:10266C00FB68012283F85120FB68002283F850207C
:10267C000323BCE0FB68DB8E9BB2002BA0D1FB6874
:10268C00DB8F9BB2002B9BD182E0FB685B68002B3D
:10269C0002D0FB8A012B71D1FB681A6BFB681B689B
:1026AC000C3312781A70FB681B6B5A1CFB681A638C
:1026BC00FB68DB8E9BB2013B9AB2FB68DA865DE06D
:1026CC00FB681B689B6803F00203022B1CD1FB68A0
:1026DC00DB8E9BB2002B17D07B6A012B14D1FB68CD
:1026EC001A6BFB681B680C3312781A70FB681B6B37
:1026FC005A1CFB681A63FB68DB8E9BB2013B9AB2D7
:10270C00FB68DA8600237B62FB681B689B6803F01E
:10271C000103012B19D1FB68DB8F9BB2002B14D06A
:10272C00FB681B68DA68FB689B6BD2B21A70FB689B
:10273C009B6B5A1CFB689A63FB68DB8F9BB2013B5B
:10274C009AB2FB68DA8701237B62FEF70BFC024628
:10275C003B6AD31A3A6B9A4203D83B6BB3F1FF3FF7
:10276C0002D13B6B002B09D1FB68012283F851206D
:10277C00FB68002283F85020032338E0FB68DB8ED3
:10278C009BB2002B9CD1FB68DB8F9BB2002B97D1AB
:10279C003A6A396BF86800F00BFB0346002B08D043
:1027AC00FB6820225A65FB68002283F85020012325
:1027BC001DE0FB689B68002B0AD100233B61FB6882
:1027CC001B68DB683B61FB681B689B683B613B6972
:1027DC00FB68012283F85120FB68002283F850200B
:1027EC00FB685B6D002B01D0012300E00023184631
:1027FC002837BD4680BD000080B487B000AFF860BC
:10280C00B9607A607B80FB6893F85130FB75FB688C
:10281C005B683B61FB7D012B0CD03B69B3F5827F80
:10282C0006D1FB689B68002B02D1FB7D042B01D0E9
:10283C00022361E0BB68002B05D07B68002B02D023
:10284C007B88002B01D1012356E0FB6893F85030B4
:10285C00012B01D102234FE0FB68012283F85020A9
:10286C00FB6893F85130DBB2042B03D0FB680522D4
:10287C0083F85120FB6800225A65FB68BA681A631A
:10288C00FB687A889A86FB687A88DA86FB687A68AD
:10289C009A63FB687A889A87FB687A88DA87FB6880
:1028AC00DB68002B06D0FB68164A1A64FB68164AD4
:1028BC005A6405E0FB68154A1A64FB68144A5A64AA
:1028CC00FB681B681B6803F04003402B07D0FB68B8
:1028DC001B681A68FB681B6842F040021A60FB68B0
:1028EC00002283F85020FB681B685A68FB681B6841
:1028FC0042F0E0025A60002318461C37BD4680BCEB
:10290C00704700BFED2B00084D2C0008292B000848
:10291C008D2B000880B588B000AF78607B681B6891
:10292C005B68FB617B681B689B68BB61BB6903F0E0
:10293C004003002B0ED1BB6903F00103002B09D01F
:10294C00FB6903F04003002B04D07B681B6C786898
:10295C009847B7E0BB6903F00203002B09D0FB6971
:10296C0003F08003002B04D07B685B6C786898477D
:10297C00A8E0BB6903F02003002B05D1BB6903F071
:10298C004003002B00F09E80FB6903F02003002B1A
:10299C0000F09880BB6903F04003002B23D07B68C8
:1029AC0093F85130DBB2032B11D07B685B6D43F095
:1029BC0004027B685A6500237B617B681B68DB68BB
:1029CC007B617B681B689B687B617B690BE00023E8
:1029DC003B617B681B68DB683B617B681B689B68A1
:1029EC003B613B696EE0BB6903F02003002B14D004
:1029FC007B685B6D43F001027B685A650023FB60CA
:102A0C007B681B689B68FB607B681B681A687B682B
:102A1C001B6822F040021A60FB687B685B6D002B20
:102A2C004FD07B681B685A687B681B6822F0E002F9
:102A3C005A607B68012283F85120FB6903F0020382
:102A4C00002B04D1FB6903F00103002B34D07B680D
:102A5C001B685A687B681B6822F003025A607B680B
:102A6C00DB6C002B11D07B68DB6C184A5A637B68DB
:102A7C00DB6C1846FEF724FC0346002B05D07B6864
:102A8C005B6D43F040027B685A657B689B6C002B46
:102A9C0016D07B689B6C0D4A5A637B689B6C1846FE
:102AAC00FEF70EFC0346002B0AD07B685B6D43F0EF
:102ABC0040027B685A6503E0786800F012F800E089
:102ACC0000BF00BF2037BD4680BD00BF012B0008F2
:102ADC0080B483B000AF786000BF0C37BD4680BCBB
:102AEC00704780B483B000AF786000BF0C37BD4630
:102AFC0080BC704780B584B000AF78607B685B6A3F
:102B0C00FB60FB680022DA87FB680022DA86F86833
:102B1C00FFF7E7FF00BF1037BD4680BD80B582B020
:102B2C0000AF78607B681B6803F10C027B689B6BC1
:102B3C001278D2B21A707B689B6B5A1C7B689A63B2
:102B4C007B68DB8F9BB2013B9AB27B68DA877B6830
:102B5C00DB8F9BB2002B0FD17B681B685A687B689C
:102B6C001B6822F060025A607B68DB8E9BB2002BE4
:102B7C0002D1786800F04EF900BF0837BD4680BD21
:102B8C0080B582B000AF78607B681A6B7B681B687D
:102B9C000C3312781A707B681B6B5A1C7B681A6397
:102BAC007B68DB8E9BB2013B9AB27B68DA867B68D2
:102BBC00DB8E9BB2002B0FD17B681B685A687B683D
:102BCC001B6822F080025A607B68DB8F9BB2002B63
:102BDC0002D1786800F01EF900BF0837BD4680BDF1
:102BEC0080B582B000AF78607B681B68DA687B6860
:102BFC009B6B92B21A807B689B6B9A1C7B689A6366
:102C0C007B68DB8F9BB2013B9AB27B68DA877B686F
:102C1C00DB8F9BB2002B0FD17B681B685A687B68DB
:102C2C001B6822F040025A607B68DB8E9BB2002B43
:102C3C0002D1786800F0EEF800BF0837BD4680BDC1
:102C4C0080B582B000AF78607B681B6B1A887B689C
:102C5C001B68DA607B681B6B9A1C7B681A637B6849
:102C6C00DB8E9BB2013B9AB27B68DA867B68DB8E8B
:102C7C009BB2002B0FD17B681B685A687B681B6862
:102C8C0022F080025A607B68DB8F9BB2002B02D152
:102C9C00786800F0BFF800BF0837BD4680BD000063
:102CAC0080B588B000AFF860B9603B601346FB712B
:102CBC00FEF758F90246BB6A9B1A3A681344FB614B
:102CCC00FEF750F9B861394B1B685B011B0DFA69B3
:102CDC0002FB03F37B6154E03B68B3F1FF3F50D040
:102CEC00FEF740F90246BB69D31AFA699A4202D937
:102CFC00FB69002B3DD1FB681B685A68FB681B689D
:102D0C0022F0E0025A60FB685B68B3F5827F11D158
:102D1C00FB689B68B3F5004F04D0FB689B68B3F568
:102D2C00806F07D1FB681B681A68FB681B6822F070
:102D3C0040021A60FB689B6AB3F5005F0FD1FB6819
:102D4C001B681A68FB681B6822F400521A60FB6847
:102D5C001B681A68FB681B6842F400521A60FB6817
:102D6C00012283F85120FB68002283F850200323B2
:102D7C0017E07B69002B01D10023FB617B69013BD0
:102D8C007B61FB681B689A68BB681340BA689A42FF
:102D9C000CBF01230023DBB21A46FB799A429BD16C
:102DAC00002318462037BD4680BD00BF0000002020
:102DBC0080B586B002AFF860B9607A607B6800932A
:102DCC00BB6801220221F868FFF76AFF0346002B5B
:102DDC0007D0FB685B6D43F02002FB685A65032348
:102DEC0013E07B680093BB6800228021F868FFF732
:102DFC0057FF0346002B07D0FB685B6D43F02002A6
:102E0C00FB685A65032300E0002318461037BD46C3
:102E1C0080BD000080B586B000AF7860354B1B6874
:102E2C00354AA2FB03235B0A642202FB03F33B61DA
:102E3C00FEF798F878617B681B685A687B681B689A
:102E4C0022F020025A603B69002B06D17B685B6D37
:102E5C0043F020027B685A6509E03B69013B3B610A
:102E6C007B681B689B6803F00203002BEBD07A692C
:102E7C0064217868FFF79CFF0346002B05D07B6824
:102E8C005B6D43F020027B685A657B689B68002B66
:102E9C000AD10023FB607B681B68DB68FB607B68E6
:102EAC001B689B68FB60FB687B685B6D002B15D116
:102EBC007B6893F85130DBB2042B07D17B6801227D
:102ECC0083F851207868FFF703FE0EE07B6801223F
:102EDC0083F851207868FDF7E3FA06E07B6801225D
:102EEC0083F851207868FFF7FCFD00BF1837BD460A
:102EFC0080BD00BF00000020F119760580B582B0BE
:102F0C0000AF78607B68002B01D1012341E07B6826
:102F1C0093F83D30DBB2002B06D17B68002283F89E
:102F2C003C207868FDF7F6FD7B68022283F83D2093
:102F3C007B681A687B6804331946104600F008FA5F
:102F4C007B68012283F846207B68012283F83E20AF
:102F5C007B68012283F83F207B68012283F84020A4
:102F6C007B68012283F841207B68012283F8422090
:102F7C007B68012283F843207B68012283F844207C
:102F8C007B68012283F845207B68012283F83D2071
:102F9C00002318460837BD4680BD80B584B000AF0D
:102FAC0078607B681B68DB68FB607B681B681B694F
:102FBC00BB60BB6803F00203002B20D0FB6803F05E
:102FCC000203002B1BD07B681B686FF002021A6196
:102FDC007B6801221A777B681B689B6903F00303EB
:102FEC00002B03D0786800F098F905E0786800F0C1
:102FFC008BF9786800F09AF97B6800221A77BB6825
:10300C0003F00403002B20D0FB6803F00403002B17
:10301C001BD07B681B686FF004021A617B6802226C
:10302C001A777B681B689B6903F44073002B03D0F1
:10303C00786800F072F905E0786800F065F9786856
:10304C0000F074F97B6800221A77BB6803F0080360
:10305C00002B20D0FB6803F00803002B1BD07B68EF
:10306C001B686FF008021A617B6804221A777B6870
:10307C001B68DB6903F00303002B03D0786800F0B6
:10308C004CF905E0786800F03FF9786800F04EF9EB
:10309C007B6800221A77BB6803F01003002B20D04A
:1030AC00FB6803F01003002B1BD07B681B686FF0D0
:1030BC0010021A617B6808221A777B681B68DB692F
:1030CC0003F44073002B03D0786800F026F905E078
:1030DC00786800F019F9786800F028F97B6800220C
:1030EC001A77BB6803F00103002B0CD0FB6803F0CC
:1030FC000103002B07D07B681B686FF001021A617B
:10310C007868FDF75BFDBB6803F08003002B0CD0E7
:10311C00FB6803F08003002B07D07B681B686FF003
:10312C0080021A61786800F07EFABB6803F04003F5
:10313C00002B0CD0FB6803F04003002B07D07B68FE
:10314C001B686FF040021A61786800F0F8F8BB68F1
:10315C0003F02003002B0CD0FB6803F02003002BA2
:10316C0007D07B681B686FF020021A61786800F04A
:10317C0051FA00BF1037BD4680BD80B584B000AF9A
:10318C00786039600023FB737B6893F83C30012B2B
:10319C0001D10223B4E07B68012283F83C207B68D8
:1031AC00022283F83D207B681B689B68BB60BB6870
:1031BC0023F07703BB60BB6823F47F43BB607B6861
:1031CC001B68BA689A603B681B68B3F5005F3ED019
:1031DC00B3F5005F00F28780B3F5805F00F0868066
:1031EC00B3F5805F7FD8702B1AD0702B7BD8602BF7
:1031FC0050D0602B77D8502B3CD0502B73D8402B11
:10320C0058D0402B6FD8302B64D0302B6BD8202B60
:10321C0060D0202B67D8002B5CD0102B5AD062E0EA
:10322C007B6818683B6899683B685A683B68DB6840
:10323C0000F073F97B681B689B68BB60BB6843F04C
:10324C007703BB607B681B68BA689A604FE07B6849
:10325C0018683B6899683B685A683B68DB6800F003
:10326C005CF97B681B689A687B681B6842F4804237
:10327C009A603CE07B6818683B6859683B68DB687F
:10328C001A4600F0D3F87B681B685021184600F0F2
:10329C002AF92CE07B6818683B6859683B68DB6846
:1032AC001A4600F0F1F87B681B686021184600F0A4
:1032BC001AF91CE07B6818683B6859683B68DB6846
:1032CC001A4600F0B3F87B681B684021184600F0E2
:1032DC000AF90CE07B681A683B681B6819461046B3
:1032EC0000F001F903E00123FB7300E000BF7B68F1
:1032FC00012283F83D207B68002283F83C20FB7B75
:10330C0018461037BD4680BD80B483B000AF7860DE
:10331C0000BF0C37BD4680BC704780B483B000AF93
:10332C00786000BF0C37BD4680BC704780B483B05A
:10333C0000AF786000BF0C37BD4680BC704780B4CE
:10334C0083B000AF786000BF0C37BD4680BC7047BF
:10335C0080B485B000AF786039607B681B68FB6017
:10336C007B682F4A93420BD07B68B3F1804F07D018
:10337C007B682C4A934203D07B682B4A934208D13A
:10338C00FB6823F07003FB603B685B68FA681343CF
:10339C00FB607B68224A93420BD07B68B3F1804F71
:1033AC0007D07B681F4A934203D07B681E4A934226
:1033BC0008D1FB6823F44073FB603B68DB68FA6858
:1033CC001343FB60FB6823F080023B685B6913438B
:1033DC00FB607B68FA681A603B689A687B68DA6203
:1033EC003B681A687B689A627B680D4A934203D1EA
:1033FC003B681A697B681A637B6801225A617B6897
:10340C001B6903F00103002B05D07B681B6923F0BB
:10341C0001027B681A6100BF1437BD4680BC70473F
:10342C00002C0140000400400008004080B487B02C
:10343C0000AFF860B9607A60FB681B6A7B61FB685F
:10344C001B6A23F00102FB681A62FB689B693B61F3
:10345C003B6923F0F0033B617B681B013A69134322
:10346C003B617B6923F00A037B617A69BB68134378
:10347C007B61FB683A699A61FB687A691A6200BFE2
:10348C001C37BD4680BC704780B487B000AFF86075
:10349C00B9607A60FB681B6A7B61FB681B6A23F06E
:1034AC001002FB681A62FB689B693B613B6923F461
:1034BC0070433B617B681B033A6913433B617B6937
:1034CC0023F0A0037B61BB681B017A6913437B610A
:1034DC00FB683A699A61FB687A691A6200BF1C370B
:1034EC00BD4680BC704780B485B000AF7860396051
:1034FC007B689B68FB60FB6823F07003FB603A6899
:10350C00FB68134343F00703FB607B68FA689A601F
:10351C0000BF1437BD4680BC704780B487B000AF85
:10352C00F860B9607A603B60FB689B687B617B6983
:10353C0023F47F437B613B681A027B681A43BB68A8
:10354C0013437A6913437B61FB687A699A6000BF05
:10355C001C37BD4680BC704780B485B000AF786026
:10356C0039607B6893F83C30012B01D1022346E093
:10357C007B68012283F83C207B68022283F83D2083
:10358C007B681B685B68FB607B681B689B68BB6027
:10359C00FB6823F07003FB603B681B68FA681343FD
:1035AC00FB607B681B68FA685A607B681B68164A6C
:1035BC0093420ED07B681B68B3F1804F09D07B68B7
:1035CC001B68124A934204D07B681B68104A9342D2
:1035DC000CD1BB6823F08003BB603B685B68BA68A6
:1035EC001343BB607B681B68BA689A607B680122D6
:1035FC0083F83D207B68002283F83C20002318468A
:10360C001437BD4680BC7047002C014000040040BC
:10361C000008004080B483B000AF786000BF0C3766
:10362C00BD4680BC704780B483B000AF786000BFEB
:10363C000C37BD4680BC704780B582B000AF786057
:10364C007B68002B01D1012342E07B6893F8413069
:10365C00DBB2002B06D17B68002283F8402078680F
:10366C00FDF73AFB7B68242283F841207B681B68BA
:10367C00DA687B681B6822F40052DA60786800F024
:10368C00B7FD7B681B681A697B681B6822F4904243
:10369C001A617B681B685A697B681B6822F02A02D6
:1036AC005A617B681B68DA687B681B6842F40052BD
:1036BC00DA607B6800225A647B68202283F8412000
:1036CC007B68202283F842207B6800225A63002307
:1036DC0018460837BD4680BD80B58AB002AFF86089
:1036EC00B9603B601346FB8000237B61FB6893F859
:1036FC004130DBB2202B75D1BB68002B02D0FB888C
:10370C00002B01D101236EE0FB6800225A64FB6898
:10371C00212283F84120FDF725FC7861FB68FA88AB
:10372C009A84FB68FA88DA84FB689B68B3F5805F3F
:10373C0008D1FB681B69002B04D10023FB61BB681B
:10374C00BB6103E0BB68FB610023BB612EE03B68FF
:10375C0000937B6900228021F86800F01CFB034673
:10376C00002B05D0FB68202283F8412003233AE08C
:10377C00FB69002B0BD1BB691B881A46FB681B68C5
:10378C00C2F308025A60BB690233BB6107E0FB69F4
:10379C001A78FB681B685A60FB690133FB61FB6894
:1037AC00DB8C9BB2013B9AB2FB68DA84FB68DB8C46
:1037BC009BB2002BCBD13B6800937B69002240214C
:1037CC00F86800F0E8FA0346002B05D0FB682022CD
:1037DC0083F84120032306E0FB68202283F8412074
:1037EC00002300E0022318462037BD4680BD80B57B
:1037FC0084B000AFF860B9601346FB80FB6893F8A7
:10380C004230DBB2202B12D1BB68002B02D0FB88DC
:10381C00002B01D101230BE0FB6800221A63FB880B
:10382C001A46B968F86800F00FFB034600E0022363
:10383C0018461037BD4680BD80B5BAB000AF786071
:10384C007B681B681B68C7F8E4307B681B68DB6807
:10385C00C7F8E0307B681B685B69C7F8DC30002375
:10386C00C7F8D8300023C7F8D430D7F8E43003F0C9
:10387C000F03C7F8D830D7F8D830002B0FD1D7F8B2
:10388C00E43003F02003002B09D0D7F8E03003F02C
:10389C002003002B03D0786800F0ECFB5BE2D7F838
:1038AC00D830002B00F0DE80D7F8DC3003F00103B9
:1038BC00002B06D1D7F8E03003F49073002B00F006
:1038CC00D180D7F8E43003F00103002B0BD0D7F8EC
:1038DC00E03003F48073002B05D07B685B6C43F005
:1038EC0001027B685A64D7F8E43003F00403002B20
:1038FC000BD0D7F8DC3003F00103002B05D07B682C
:10390C005B6C43F002027B685A64D7F8E43003F036
:10391C000203002B0BD0D7F8DC3003F00103002B93
:10392C0005D07B685B6C43F004027B685A64D7F863
:10393C00E43003F00803002B11D0D7F8E03003F08B
:10394C002003002B05D1D7F8DC3003F00103002B4A
:10395C0005D07B685B6C43F008027B685A647B681B
:10396C005B6C002B00F0F281D7F8E43003F02003FD
:10397C00002B08D0D7F8E03003F02003002B02D046
:10398C00786800F077FB7B681B685B6903F0400389
:10399C00002B14BF01230023DBB2C7F8D4307B68A3
:1039AC005B6C03F00803002B03D1D7F8D430002B49
:1039BC004FD0786800F081FA7B681B685B6903F074
:1039CC004003002B41D07B681B681433C7F89C3034
:1039DC00D7F89C3053E8003FC7F89830D7F89830A8
:1039EC0023F04003C7F8D0307B681B681433D7F83A
:1039FC00D020C7F8A820C7F8A430D7F8A410D7F85F
:103A0C00A82041E80023C7F8A030D7F8A030002B3D
:103A1C00D9D17B68DB6B002B13D07B68DB6B7E4AC8
:103A2C005A637B68DB6B1846FDF74AFC0346002B98
:103A3C0016D07B68DB6B5B6B7A68D26B1046984751
:103A4C000EE0786800F093F90AE0786800F08FF9DE
:103A5C0006E0786800F08BF97B6800225A6475E107
:103A6C0000BF73E17B681B6B012B40F04F81D7F8D3
:103A7C00E43003F01003002B00F04881D7F8E0305D
:103A8C0003F01003002B00F041810023BB607B6826
:103A9C001B681B68BB607B681B685B68BB60BB6892
:103AAC007B681B685B6903F04003002B00F0B68059
:103ABC007B68DB6B1B685B68A7F8BE30B7F8BE3061
:103ACC00002B00F045817B689B8DB7F8BE209A4295
:103ADC0080F03E817B68B7F8BE20DA857B68DB6BB3
:103AEC009B69202B00F088807B681B680C33C7F81F
:103AFC008830D7F8883053E8003FC7F88430D7F8BF
:103B0C00843023F48073C7F8B8307B681B680C339F
:103B1C00D7F8B820C7F89420C7F89030D7F8901091
:103B2C00D7F8942041E80023C7F88C30D7F88C30B4
:103B3C00002BD9D17B681B6814337B677B6F53E8F0
:103B4C00003F3B673B6F23F00103C7F8B4307B6841
:103B5C001B681433D7F8B420C7F88020FB67F96FC3
:103B6C00D7F8802041E80023BB67BB6F002BE1D165
:103B7C007B681B6814333B663B6E53E8003FFB6568
:103B8C00FB6D23F04003C7F8B0307B681B6814331F
:103B9C00D7F8B020FA66BB66B96EFA6E41E800231E
:103BAC007B667B6E002BE3D17B68202283F842205E
:103BBC007B6800221A637B681B680C33FB64FB6C0C
:103BCC0053E8003FBB64BB6C23F01003C7F8AC3068
:103BDC007B681B680C33D7F8AC20BA657B65796DB4
:103BEC00BA6D41E800233B653B6D002BE3D17B684C
:103BFC00DB6B1846FDF728FB7B6802225A637B6857
:103C0C009A8D7B68DB8D9BB2D31A9BB21946786870
:103C1C0000F0B6F89CE000BF8B3F00087B689A8DE3
:103C2C007B68DB8D9BB2D31AA7F8CE307B68DB8D1B
:103C3C009BB2002B00F08E80B7F8CE30002B00F03A
:103C4C0089807B681B680C33BB63BB6B53E8003FFC
:103C5C007B637B6B23F49073C7F8C8307B681B685D
:103C6C000C33D7F8C8207A643B64396C7A6C41E821
:103C7C000023FB63FB6B002BE3D17B681B681433C5
:103C8C007B627B6A53E8003F3B623B6A23F0010393
:103C9C00C7F8C4307B681B681433D7F8C4203A6368
:103CAC00FB62F96A3A6B41E80023BB62BB6A002BEA
:103CBC00E3D17B68202283F842207B6800221A63C0
:103CCC007B681B680C333B613B6953E8003FFB602E
:103CDC00FB6823F01003C7F8C0307B681B680C33FB
:103CEC00D7F8C020FA61BB61B969FA6941E80023D1
:103CFC007B617B69002BE3D17B6802225A63B7F8A6
:103D0C00CE301946786800F03BF823E0D7F8E43061
:103D1C0003F08003002B09D0D7F8E03003F08003C8
:103D2C00002B03D0786800F03EF914E0D7F8E430AB
:103D3C0003F04003002B0ED0D7F8E03003F0400323
:103D4C00002B08D0786800F07DF904E000BF02E099
:103D5C0000BF00E000BFE837BD4680BD80B483B033
:103D6C0000AF786000BF0C37BD4680BC704780B494
:103D7C0083B000AF786000BF0C37BD4680BC704785
:103D8C0080B483B000AF78600B467B8000BF0C37EB
:103D9C00BD4680BC704780B586B000AFF860B96096
:103DAC003B601346FB713BE03B6AB3F1FF3F37D0FE
:103DBC00FDF7D8F802463B68D31A3A6A9A4202D306
:103DCC003B6A002B01D103233AE0FB681B68DB68DC
:103DDC0003F00403002B23D0BB68802B20D0BB68DE
:103DEC00402B1DD0FB681B681B6803F00803082BD5
:103DFC0016D100237B61FB681B681B687B61FB6829
:103E0C001B685B687B617B69F86800F056F8FB689F
:103E1C0008225A64FB68002283F8402001230FE03B
:103E2C00FB681B681A68BB681340BA689A420CBFDF
:103E3C0001230023DBB21A46FB799A42B4D000234B
:103E4C0018461837BD4680BD80B485B000AFF86009
:103E5C00B9601346FB80FB68BA689A62FB68FA8803
:103E6C009A85FB68FA88DA85FB6800225A64FB683D
:103E7C00222283F84220FB681B69002B07D0FB68C9
:103E8C001B68DA68FB681B6842F48072DA60FB68B6
:103E9C001B685A69FB681B6842F001025A61FB6897
:103EAC001B68DA68FB681B6842F02002DA600023AA
:103EBC0018461437BD4680BC704780B495B000AF2F
:103ECC0078607B681B680C337B637B6B53E8003F2B
:103EDC003B633B6B23F49073FB647B681B680C3374
:103EEC00FA6C3A64FB63F96B3A6C41E80023BB63F0
:103EFC00BB6B002BE5D17B681B6814333B623B6AC0
:103F0C0053E8003FFB61FB6923F00103BB647B6852
:103F1C001B681433BA6CFA62BB62B96AFA6A41E87C
:103F2C0000237B627B6A002BE5D17B681B6B012B2A
:103F3C0019D17B681B680C33FB60FB6853E8003FAE
:103F4C00BB60BB6823F010037B647B681B680C337D
:103F5C007A6CBA617B617969BA6941E800233B618B
:103F6C003B69002BE5D17B68202283F842207B68DB
:103F7C0000221A6300BF5437BD4680BC704780B521
:103F8C0084B000AF78607B685B6AFB60FB680022E2
:103F9C00DA85FB680022DA84F868FFF7E8FE00BFD8
:103FAC001037BD4680BD80B485B000AF78607B68AB
:103FBC0093F84130DBB2212B3ED17B689B68B3F583
:103FCC00805F14D17B681B69002B10D17B681B6A46
:103FDC00FB60FB681B881A467B681B68C2F30802EF
:103FEC005A607B681B6A9A1C7B681A6208E07B68C3
:103FFC001B6A591C7A6811621A787B681B685A60B4
:10400C007B68DB8C9BB2013B9BB27A681946D184EE
:10401C00002B0FD17B681B68DA687B681B6822F069
:10402C008002DA607B681B68DA687B681B6842F088
:10403C004002DA60002300E0022318461437BD4624
:10404C0080BC704780B582B000AF78607B681B681D
:10405C00DA687B681B6822F04002DA607B682022F9
:10406C0083F841207868FFF779FE0023184608375B
:10407C00BD4680BD80B58CB000AF78607B6893F88E
:10408C004230DBB2222B40F0AE807B689B68B3F5EC
:10409C00805F17D17B681B69002B13D10023FB6257
:1040AC007B689B6ABB627B681B685B689BB2C3F3D3
:1040BC0008039AB2BB6A1A807B689B6A9A1C7B685D
:1040CC009A6226E07B689B6AFB620023BB627B687A
:1040DC009B68B3F5805F07D07B689B68002B0AD187
:1040EC007B681B69002B06D17B681B685B68DAB2A6
:1040FC00FB6A1A7008E07B681B685B68DBB203F034
:10410C007F03DAB2FB6A1A707B689B6A5A1C7B6865
:10411C009A627B68DB8D9BB2013B9BB27A68194635
:10412C00D185002B5DD17B681B68DA687B681B68C6
:10413C0022F02002DA607B681B68DA687B681B68F7
:10414C0022F48072DA607B681B685A697B681B6892
:10415C0022F001025A617B68202283F842207B689E
:10416C0000225A637B681B6B012B35D17B680022C4
:10417C001A637B681B680C337B617B6953E8003FD7
:10418C003B613B6923F010037B627B681B680C333B
:10419C007A6A3A62FB61F9693A6A41E80023BB61C9
:1041AC00BB69002BE5D17B681B681B6803F010030F
:1041BC00102B0AD10023FB607B681B681B68FB601B
:1041CC007B681B685B68FB60FB687B689B8D194692
:1041DC007868FFF7D5FD02E07868FCF72FF900232B
:1041EC0002E0002300E0022318463037BD4680BDB4
:1041FC0080B584B000AF78607B681B681B6923F4C2
:10420C0040517B68DA687B681B680A431A617B68DB
:10421C009A687B681B691A437B685B691343BB60B4
:10422C007B681B68DB6823F4B05323F00C037A68BB
:10423C001268B9680B43D3607B681B685B6923F415
:10424C0040717B689A697B681B680A435A617B687A
:10425C001B682C4A934203D1FEF76EF8F86002E01B
:10426C00FEF756F8F860FA6813469B0013449A0060
:10427C001A447B685B689B00B2FBF3F3224AA2FBF7
:10428C0003235B091901FA6813469B0013449A0037
:10429C001A447B685B689B00B2FBF3F21A4BA3FBDE
:1042AC0002035B09642000FB03F3D31A1B013233B6
:1042BC00154AA2FB03235B0903F0F0031944FA68C7
:1042CC0013469B0013449A001A447B685B689B005E
:1042DC00B2FBF3F20C4BA3FB02035B09642000FB63
:1042EC0003F3D31A1B013233074AA2FB03235B09E6
:1042FC0003F00F027B681B680A449A6000BF1037FA
:10430C00BD4680BD003801401F85EB510346024479
:10431C00934200D1704703F8011BF9E770B50026F2
:10432C000C4D0D4C641BA410A64209D100F01AF8D8
:10433C0000260A4D0A4C641BA410A64205D170BD80
:10434C0055F8043B98470136EEE755F8043B98477F
:10435C000136F2E7C4430008C4430008C443000814
:10436C00C8430008F8B500BFF8BC08BC9E467047AF
:0C437C00F8B500BFF8BC08BC9E467047B6
:1043880054494D454F0000004552524F520000001D
:1043980000000000000000000102030406070809ED
:1043A80000000000010203040203040506070809CF
:0C43B8000A0B0C0D0E0F1010010200008B
:0443C40031010008BB
:0443C8000D010008DB
:0C43CC0000127A00100000000100000048
:0400000508000E756C
:00000001FF
